{
  "_format": "hh-sol-artifact-1",
  "contractName": "MerkleTree",
  "sourceName": "contracts/MerkleTree.sol",
  "abi": [
    {
      "inputs": [],
      "stateMutability": "nonpayable",
      "type": "constructor"
    },
    {
      "inputs": [
        {
          "internalType": "uint256",
          "name": "",
          "type": "uint256"
        }
      ],
      "name": "hashes",
      "outputs": [
        {
          "internalType": "uint256",
          "name": "",
          "type": "uint256"
        }
      ],
      "stateMutability": "view",
      "type": "function"
    },
    {
      "inputs": [],
      "name": "index",
      "outputs": [
        {
          "internalType": "uint256",
          "name": "",
          "type": "uint256"
        }
      ],
      "stateMutability": "view",
      "type": "function"
    },
    {
      "inputs": [
        {
          "internalType": "uint256",
          "name": "hashedLeaf",
          "type": "uint256"
        }
      ],
      "name": "insertLeaf",
      "outputs": [
        {
          "internalType": "uint256",
          "name": "",
          "type": "uint256"
        }
      ],
      "stateMutability": "nonpayable",
      "type": "function"
    },
    {
      "inputs": [],
      "name": "n",
      "outputs": [
        {
          "internalType": "uint256",
          "name": "",
          "type": "uint256"
        }
      ],
      "stateMutability": "view",
      "type": "function"
    },
    {
      "inputs": [],
      "name": "root",
      "outputs": [
        {
          "internalType": "uint256",
          "name": "",
          "type": "uint256"
        }
      ],
      "stateMutability": "view",
      "type": "function"
    },
    {
      "inputs": [
        {
          "internalType": "uint256[2]",
          "name": "a",
          "type": "uint256[2]"
        },
        {
          "internalType": "uint256[2][2]",
          "name": "b",
          "type": "uint256[2][2]"
        },
        {
          "internalType": "uint256[2]",
          "name": "c",
          "type": "uint256[2]"
        },
        {
          "internalType": "uint256[1]",
          "name": "input",
          "type": "uint256[1]"
        }
      ],
      "name": "verify",
      "outputs": [
        {
          "internalType": "bool",
          "name": "",
          "type": "bool"
        }
      ],
      "stateMutability": "view",
      "type": "function"
    },
    {
      "inputs": [
        {
          "internalType": "uint256[2]",
          "name": "a",
          "type": "uint256[2]"
        },
        {
          "internalType": "uint256[2][2]",
          "name": "b",
          "type": "uint256[2][2]"
        },
        {
          "internalType": "uint256[2]",
          "name": "c",
          "type": "uint256[2]"
        },
        {
          "internalType": "uint256[1]",
          "name": "input",
          "type": "uint256[1]"
        }
      ],
      "name": "verifyProof",
      "outputs": [
        {
          "internalType": "bool",
          "name": "r",
          "type": "bool"
        }
      ],
      "stateMutability": "view",
      "type": "function"
    }
  ],
  "bytecode": "0x608060405260006001553480156200001657600080fd5b50604051806101000160405280600060ff168152602001600060ff168152602001600060ff168152602001600060ff168152602001600060ff168152602001600060ff168152602001600060ff168152602001600060ff1681525060009060086200008392919062000096565b506000805490506003819055506200010c565b828054828255906000526020600020908101928215620000da579160200282015b82811115620000d9578251829060ff16905591602001919060010190620000b7565b5b509050620000e99190620000ed565b5090565b5b8082111562000108576000816000905550600101620000ee565b5090565b612804806200011c6000396000f3fe608060405234801561001057600080fd5b506004361061007d5760003560e01c806343753b4d1161005b57806343753b4d146100ee578063501895ae1461011e578063b72024341461014e578063ebf0c7171461017e5761007d565b80632986c0e5146100825780632e52d606146100a05780632fa8ea6d146100be575b600080fd5b61008a61019c565b604051610097919061238e565b60405180910390f35b6100a86101a2565b6040516100b5919061238e565b60405180910390f35b6100d860048036038101906100d39190612073565b6101a8565b6040516100e591906122b3565b60405180910390f35b61010860048036038101906101039190612073565b6101c0565b60405161011591906122b3565b60405180910390f35b610138600480360381019061013391906120d8565b610674565b604051610145919061238e565b60405180910390f35b610168600480360381019061016391906120d8565b610698565b604051610175919061238e565b60405180910390f35b610186610917565b604051610193919061238e565b60405180910390f35b60015481565b60035481565b60006101b6858585856101c0565b9050949350505050565b60006101ca611d69565b60405180604001604052808760006002811061020f577f4e487b7100000000000000000000000000000000000000000000000000000000600052603260045260246000fd5b6020020151815260200187600160028110610253577f4e487b7100000000000000000000000000000000000000000000000000000000600052603260045260246000fd5b6020020151815250816000018190525060405180604001604052806040518060400160405280886000600281106102b3577f4e487b7100000000000000000000000000000000000000000000000000000000600052603260045260246000fd5b60200201516000600281106102f1577f4e487b7100000000000000000000000000000000000000000000000000000000600052603260045260246000fd5b6020020151815260200188600060028110610335577f4e487b7100000000000000000000000000000000000000000000000000000000600052603260045260246000fd5b6020020151600160028110610373577f4e487b7100000000000000000000000000000000000000000000000000000000600052603260045260246000fd5b602002015181525081526020016040518060400160405280886001600281106103c5577f4e487b7100000000000000000000000000000000000000000000000000000000600052603260045260246000fd5b6020020151600060028110610403577f4e487b7100000000000000000000000000000000000000000000000000000000600052603260045260246000fd5b6020020151815260200188600160028110610447577f4e487b7100000000000000000000000000000000000000000000000000000000600052603260045260246000fd5b6020020151600160028110610485577f4e487b7100000000000000000000000000000000000000000000000000000000600052603260045260246000fd5b602002015181525081525081602001819052506040518060400160405280856000600281106104dd577f4e487b7100000000000000000000000000000000000000000000000000000000600052603260045260246000fd5b6020020151815260200185600160028110610521577f4e487b7100000000000000000000000000000000000000000000000000000000600052603260045260246000fd5b602002015181525081604001819052506000600167ffffffffffffffff811115610574577f4e487b7100000000000000000000000000000000000000000000000000000000600052604160045260246000fd5b6040519080825280602002602001820160405280156105a25781602001602082028036833780820191505090505b50905060005b6001811015610647578481600181106105ea577f4e487b7100000000000000000000000000000000000000000000000000000000600052603260045260246000fd5b6020020151828281518110610628577f4e487b7100000000000000000000000000000000000000000000000000000000600052603260045260246000fd5b602002602001018181525050808061063f906125a9565b9150506105a8565b506000610654828461091d565b14156106655760019250505061066c565b6000925050505b949350505050565b6000818154811061068457600080fd5b906000526020600020016000915090505481565b6000816000600154815481106106d7577f4e487b7100000000000000000000000000000000000000000000000000000000600052603260045260246000fd5b906000526020600020018190555060005b60016003546106f7919061252e565b8110156108865760006040518060400160405280600084600261071a91906124d4565b81548110610751577f4e487b7100000000000000000000000000000000000000000000000000000000600052603260045260246000fd5b906000526020600020015481526020016000600185600261077291906124d4565b61077c919061247e565b815481106107b3577f4e487b7100000000000000000000000000000000000000000000000000000000600052603260045260246000fd5b90600052602060002001548152509050600073__$86e0c54df1042e28bf2dd20ccf184dc428$__6329a5f2f6836040518263ffffffff1660e01b81526004016107fc9190612298565b60206040518083038186803b15801561081457600080fd5b505af4158015610828573d6000803e3d6000fd5b505050506040513d601f19601f8201168201806040525081019061084c9190612101565b908060018154018082558091505060019003906000526020600020016000909190919091505550808061087e906125a9565b9150506106e8565b506001806000828254610899919061247e565b9250508190555060035460015411156108b55760006001819055505b600060016000805490506108c9919061252e565b81548110610900577f4e487b7100000000000000000000000000000000000000000000000000000000600052603260045260246000fd5b906000526020600020015460028190559050919050565b60025481565b6000807f30644e72e131a029b85045b68181585d2833e84879b9709143e1f593f00000019050600061094d610ba8565b905080608001515160018651610963919061247e565b146109a3576040517f08c379a000000000000000000000000000000000000000000000000000000000815260040161099a906122ce565b60405180910390fd5b60006040518060400160405280600081526020016000815250905060005b8651811015610b045783878281518110610a04577f4e487b7100000000000000000000000000000000000000000000000000000000600052603260045260246000fd5b602002602001015110610a4c576040517f08c379a0000000000000000000000000000000000000000000000000000000008152600401610a439061230e565b60405180910390fd5b610aef82610aea8560800151600185610a65919061247e565b81518110610a9c577f4e487b7100000000000000000000000000000000000000000000000000000000600052603260045260246000fd5b60200260200101518a8581518110610add577f4e487b7100000000000000000000000000000000000000000000000000000000600052603260045260246000fd5b602002602001015161101e565b61116d565b91508080610afc906125a9565b9150506109c1565b50610b54818360800151600081518110610b47577f4e487b7100000000000000000000000000000000000000000000000000000000600052603260045260246000fd5b602002602001015161116d565b9050610b8a610b668660000151611308565b8660200151846000015185602001518587604001518b6040015189606001516113ad565b610b9a5760019350505050610ba2565b600093505050505b92915050565b610bb0611d9c565b60405180604001604052807f2d4d9aa7e302d9df41749d5507949d05dbea33fbb16c643b22f599a2be6df2e281526020017f14bedd503c37ceb061d8ec60209fe345ce89830a19230301f076caff004d19268152508160000181905250604051806040016040528060405180604001604052807f0967032fcbf776d1afc985f88877f182d38480a653f2decaa9794cbc3bf3060c81526020017f0e187847ad4c798374d0d6732bf501847dd68bc0e071241e0213bc7fc13db7ab815250815260200160405180604001604052807f304cfbd1e08a704a99f5e847d93f8c3caafddec46b7a0d379da69a4d112346a781526020017f1739c1b1a457a8c7313123d24d2f9192f896b7c63eea05a9d57f06547ad0cec88152508152508160200181905250604051806040016040528060405180604001604052807f198e9393920d483a7260bfb731fb5d25f1aa493335a9e71297e485b7aef312c281526020017f1800deef121f1e76426a00665e5c4479674322d4f75edadd46debd5cd992f6ed815250815260200160405180604001604052807f090689d0585ff075ec9e99ad690c3395bc4b313370b38ef355acdadcd122975b81526020017f12c85ea5db8c6deb4aab71808dcb408fe3d1e7690c43d37b4ce6cc0166fa7daa8152508152508160400181905250604051806040016040528060405180604001604052807f0a2d2061ff5e27084ead03100aac369f8917430c6c5adcc59476aa612de62efe81526020017f22782be2804c621d2f594dee2389a8157c916c58a7f8a8867111f1a76192e5e4815250815260200160405180604001604052807f095a329394ee30a9354b026e0a63a36a1c59ea33761e6fb912716ab1414e1c9f81526020017f277de7060673b170eefa0b70b915803e74b716f296dce01455cd2e0a373c9a548152508152508160600181905250600267ffffffffffffffff811115610e9d577f4e487b7100000000000000000000000000000000000000000000000000000000600052604160045260246000fd5b604051908082528060200260200182016040528015610ed657816020015b610ec3611de3565b815260200190600190039081610ebb5790505b50816080018190525060405180604001604052807f01a2b03bf61b98afa2a023e050c41773070176b6f5580d1e5c915cda9a9a2b3d81526020017f036a40775be7e17ad311c3b1cae111e02590c702a76fe298c51cb32961bbad818152508160800151600081518110610f72577f4e487b7100000000000000000000000000000000000000000000000000000000600052603260045260246000fd5b602002602001018190525060405180604001604052807f2d8ca2dbe7eb16bd9c22548893fe4bea1364802dac3a6627446d4078d33e34bd81526020017f168a27dfb32e8be546b0b1fab16b147af54ef7aedd2f426cb3d584e03c4f30668152508160800151600181518110611010577f4e487b7100000000000000000000000000000000000000000000000000000000600052603260045260246000fd5b602002602001018190525090565b611026611de3565b61102e611dfd565b83600001518160006003811061106d577f4e487b7100000000000000000000000000000000000000000000000000000000600052603260045260246000fd5b6020020181815250508360200151816001600381106110b5577f4e487b7100000000000000000000000000000000000000000000000000000000600052603260045260246000fd5b60200201818152505082816002600381106110f9577f4e487b7100000000000000000000000000000000000000000000000000000000600052603260045260246000fd5b602002018181525050600060608360808460076107d05a03fa9050806000811461112257611124565bfe5b5080611165576040517f08c379a000000000000000000000000000000000000000000000000000000000815260040161115c906122ee565b60405180910390fd5b505092915050565b611175611de3565b61117d611e1f565b8360000151816000600481106111bc577f4e487b7100000000000000000000000000000000000000000000000000000000600052603260045260246000fd5b602002018181525050836020015181600160048110611204577f4e487b7100000000000000000000000000000000000000000000000000000000600052603260045260246000fd5b60200201818152505082600001518160026004811061124c577f4e487b7100000000000000000000000000000000000000000000000000000000600052603260045260246000fd5b602002018181525050826020015181600360048110611294577f4e487b7100000000000000000000000000000000000000000000000000000000600052603260045260246000fd5b602002018181525050600060608360c08460066107d05a03fa905080600081146112bd576112bf565bfe5b5080611300576040517f08c379a00000000000000000000000000000000000000000000000000000000081526004016112f79061234e565b60405180910390fd5b505092915050565b611310611de3565b60007f30644e72e131a029b85045b68181585d97816a916871ca8d3c208c16d87cfd4790506000836000015114801561134d575060008360200151145b156113715760405180604001604052806000815260200160008152509150506113a8565b60405180604001604052808460000151815260200182856020015161139691906125f2565b836113a1919061252e565b8152509150505b919050565b600080600467ffffffffffffffff8111156113f1577f4e487b7100000000000000000000000000000000000000000000000000000000600052604160045260246000fd5b60405190808252806020026020018201604052801561142a57816020015b611417611de3565b81526020019060019003908161140f5790505b5090506000600467ffffffffffffffff811115611470577f4e487b7100000000000000000000000000000000000000000000000000000000600052604160045260246000fd5b6040519080825280602002602001820160405280156114a957816020015b611496611e41565b81526020019060019003908161148e5790505b5090508a826000815181106114e7577f4e487b7100000000000000000000000000000000000000000000000000000000600052603260045260246000fd5b6020026020010181905250888260018151811061152d577f4e487b7100000000000000000000000000000000000000000000000000000000600052603260045260246000fd5b60200260200101819052508682600281518110611573577f4e487b7100000000000000000000000000000000000000000000000000000000600052603260045260246000fd5b602002602001018190525084826003815181106115b9577f4e487b7100000000000000000000000000000000000000000000000000000000600052603260045260246000fd5b602002602001018190525089816000815181106115ff577f4e487b7100000000000000000000000000000000000000000000000000000000600052603260045260246000fd5b60200260200101819052508781600181518110611645577f4e487b7100000000000000000000000000000000000000000000000000000000600052603260045260246000fd5b6020026020010181905250858160028151811061168b577f4e487b7100000000000000000000000000000000000000000000000000000000600052603260045260246000fd5b602002602001018190525083816003815181106116d1577f4e487b7100000000000000000000000000000000000000000000000000000000600052603260045260246000fd5b60200260200101819052506116e682826116f6565b9250505098975050505050505050565b6000815183511461173c576040517f08c379a00000000000000000000000000000000000000000000000000000000081526004016117339061232e565b60405180910390fd5b600083519050600060068261175191906124d4565b905060008167ffffffffffffffff811115611795577f4e487b7100000000000000000000000000000000000000000000000000000000600052604160045260246000fd5b6040519080825280602002602001820160405280156117c35781602001602082028036833780820191505090505b50905060005b83811015611ca85786818151811061180a577f4e487b7100000000000000000000000000000000000000000000000000000000600052603260045260246000fd5b60200260200101516000015182600060068461182691906124d4565b611830919061247e565b81518110611867577f4e487b7100000000000000000000000000000000000000000000000000000000600052603260045260246000fd5b6020026020010181815250508681815181106118ac577f4e487b7100000000000000000000000000000000000000000000000000000000600052603260045260246000fd5b6020026020010151602001518260016006846118c891906124d4565b6118d2919061247e565b81518110611909577f4e487b7100000000000000000000000000000000000000000000000000000000600052603260045260246000fd5b60200260200101818152505085818151811061194e577f4e487b7100000000000000000000000000000000000000000000000000000000600052603260045260246000fd5b602002602001015160000151600060028110611993577f4e487b7100000000000000000000000000000000000000000000000000000000600052603260045260246000fd5b60200201518260026006846119a891906124d4565b6119b2919061247e565b815181106119e9577f4e487b7100000000000000000000000000000000000000000000000000000000600052603260045260246000fd5b602002602001018181525050858181518110611a2e577f4e487b7100000000000000000000000000000000000000000000000000000000600052603260045260246000fd5b602002602001015160000151600160028110611a73577f4e487b7100000000000000000000000000000000000000000000000000000000600052603260045260246000fd5b6020020151826003600684611a8891906124d4565b611a92919061247e565b81518110611ac9577f4e487b7100000000000000000000000000000000000000000000000000000000600052603260045260246000fd5b602002602001018181525050858181518110611b0e577f4e487b7100000000000000000000000000000000000000000000000000000000600052603260045260246000fd5b602002602001015160200151600060028110611b53577f4e487b7100000000000000000000000000000000000000000000000000000000600052603260045260246000fd5b6020020151826004600684611b6891906124d4565b611b72919061247e565b81518110611ba9577f4e487b7100000000000000000000000000000000000000000000000000000000600052603260045260246000fd5b602002602001018181525050858181518110611bee577f4e487b7100000000000000000000000000000000000000000000000000000000600052603260045260246000fd5b602002602001015160200151600160028110611c33577f4e487b7100000000000000000000000000000000000000000000000000000000600052603260045260246000fd5b6020020151826005600684611c4891906124d4565b611c52919061247e565b81518110611c89577f4e487b7100000000000000000000000000000000000000000000000000000000600052603260045260246000fd5b6020026020010181815250508080611ca0906125a9565b9150506117c9565b50611cb1611e67565b6000602082602086026020860160086107d05a03fa90508060008114611cd657611cd8565bfe5b5080611d19576040517f08c379a0000000000000000000000000000000000000000000000000000000008152600401611d109061236e565b60405180910390fd5b600082600060018110611d55577f4e487b7100000000000000000000000000000000000000000000000000000000600052603260045260246000fd5b602002015114159550505050505092915050565b6040518060600160405280611d7c611de3565b8152602001611d89611e41565b8152602001611d96611de3565b81525090565b6040518060a00160405280611daf611de3565b8152602001611dbc611e41565b8152602001611dc9611e41565b8152602001611dd6611e41565b8152602001606081525090565b604051806040016040528060008152602001600081525090565b6040518060600160405280600390602082028036833780820191505090505090565b6040518060800160405280600490602082028036833780820191505090505090565b6040518060400160405280611e54611e89565b8152602001611e61611e89565b81525090565b6040518060200160405280600190602082028036833780820191505090505090565b6040518060400160405280600290602082028036833780820191505090505090565b6000611ebe611eb9846123ce565b6123a9565b90508082856040860282011115611ed457600080fd5b60005b85811015611f045781611eea8882612022565b845260208401935060408301925050600181019050611ed7565b5050509392505050565b6000611f21611f1c846123f4565b6123a9565b90508082856020860282011115611f3757600080fd5b60005b85811015611f675781611f4d8882612049565b845260208401935060208301925050600181019050611f3a565b5050509392505050565b6000611f84611f7f8461241a565b6123a9565b90508082856020860282011115611f9a57600080fd5b60005b85811015611fca5781611fb08882612049565b845260208401935060208301925050600181019050611f9d565b5050509392505050565b600082601f830112611fe557600080fd5b6002611ff2848285611eab565b91505092915050565b600082601f83011261200c57600080fd5b6001612019848285611f0e565b91505092915050565b600082601f83011261203357600080fd5b6002612040848285611f71565b91505092915050565b600081359050612058816127b7565b92915050565b60008151905061206d816127b7565b92915050565b600080600080610120858703121561208a57600080fd5b600061209887828801612022565b94505060406120a987828801611fd4565b93505060c06120ba87828801612022565b9250506101006120cc87828801611ffb565b91505092959194509250565b6000602082840312156120ea57600080fd5b60006120f884828501612049565b91505092915050565b60006020828403121561211357600080fd5b60006121218482850161205e565b91505092915050565b60006121368383612289565b60208301905092915050565b61214b8161244a565b6121558184612462565b925061216082612440565b8060005b83811015612191578151612178878261212a565b965061218383612455565b925050600181019050612164565b505050505050565b6121a281612562565b82525050565b60006121b560128361246d565b91506121c0826126c1565b602082019050919050565b60006121d860128361246d565b91506121e3826126ea565b602082019050919050565b60006121fb601f8361246d565b915061220682612713565b602082019050919050565b600061221e60168361246d565b91506122298261273c565b602082019050919050565b600061224160128361246d565b915061224c82612765565b602082019050919050565b600061226460158361246d565b915061226f8261278e565b602082019050919050565b6122838161256e565b82525050565b6122928161256e565b82525050565b60006040820190506122ad6000830184612142565b92915050565b60006020820190506122c86000830184612199565b92915050565b600060208201905081810360008301526122e7816121a8565b9050919050565b60006020820190508181036000830152612307816121cb565b9050919050565b60006020820190508181036000830152612327816121ee565b9050919050565b6000602082019050818103600083015261234781612211565b9050919050565b6000602082019050818103600083015261236781612234565b9050919050565b6000602082019050818103600083015261238781612257565b9050919050565b60006020820190506123a3600083018461227a565b92915050565b60006123b36123c4565b90506123bf8282612578565b919050565b6000604051905090565b600067ffffffffffffffff8211156123e9576123e8612681565b5b602082029050919050565b600067ffffffffffffffff82111561240f5761240e612681565b5b602082029050919050565b600067ffffffffffffffff82111561243557612434612681565b5b602082029050919050565b6000819050919050565b600060029050919050565b6000602082019050919050565b600081905092915050565b600082825260208201905092915050565b60006124898261256e565b91506124948361256e565b9250827fffffffffffffffffffffffffffffffffffffffffffffffffffffffffffffffff038211156124c9576124c8612623565b5b828201905092915050565b60006124df8261256e565b91506124ea8361256e565b9250817fffffffffffffffffffffffffffffffffffffffffffffffffffffffffffffffff048311821515161561252357612522612623565b5b828202905092915050565b60006125398261256e565b91506125448361256e565b92508282101561255757612556612623565b5b828203905092915050565b60008115159050919050565b6000819050919050565b612581826126b0565b810181811067ffffffffffffffff821117156125a05761259f612681565b5b80604052505050565b60006125b48261256e565b91507fffffffffffffffffffffffffffffffffffffffffffffffffffffffffffffffff8214156125e7576125e6612623565b5b600182019050919050565b60006125fd8261256e565b91506126088361256e565b92508261261857612617612652565b5b828206905092915050565b7f4e487b7100000000000000000000000000000000000000000000000000000000600052601160045260246000fd5b7f4e487b7100000000000000000000000000000000000000000000000000000000600052601260045260246000fd5b7f4e487b7100000000000000000000000000000000000000000000000000000000600052604160045260246000fd5b6000601f19601f8301169050919050565b7f76657269666965722d6261642d696e7075740000000000000000000000000000600082015250565b7f70616972696e672d6d756c2d6661696c65640000000000000000000000000000600082015250565b7f76657269666965722d6774652d736e61726b2d7363616c61722d6669656c6400600082015250565b7f70616972696e672d6c656e677468732d6661696c656400000000000000000000600082015250565b7f70616972696e672d6164642d6661696c65640000000000000000000000000000600082015250565b7f70616972696e672d6f70636f64652d6661696c65640000000000000000000000600082015250565b6127c08161256e565b81146127cb57600080fd5b5056fea2646970667358221220c52465ca07909911cc7f93e5610f576707e6ddbcc2d8755582b9d4ce086d3b4864736f6c63430008040033",
  "linkReferences": {
    "contracts/Poseidon.sol": {
      "PoseidonT3": [
        {
          "length": 20,
          "start": 2275
        }
      ]
    }
  },
  "deployedLinkReferences": {
    "contracts/Poseidon.sol": {
      "PoseidonT3": [
        {
          "length": 20,
          "start": 1991
        }
      ]
    }
  }
}